:100000000C942A000C9434000C9434000C943400AA
:100010000C9434000C9434000C9434000C94340090
:100020000C9434000C9434000C9434000C94340080
:100030000C9434000C9434000C9434000C94340070
:100040000C9434000C9434000C9434000C94340060
:100050000C94340011241FBECFE5D8E0DEBFCDBF25
:100060000E945F000C949E000C940000959A000082
:1000700000009598089517BA979A9298C79B03C065
:100080000E943600FBCF8FEF87BB0895CF93C82F18
:100090000E943B00C8BB9798929A0E94360018BAFB
:1000A000CF910895CF93C82F0E943B00C8BB82B365
:1000B0008B7782BB0E94360018BACF91089581B326
:1000C000846A81BB85EA9EE00197F1F700C00000D9
:1000D00081E00E94520083EF91E00197F1F700C0A8
:1000E000000088E30E94520090E19A95F1F700C069
:1000F0008EE00E94520080E18A95F1F700C08EE404
:100100000E94460085E60E94460087E70E9446005E
:1001100082E60E94460089E60E94460085E60E942B
:10012000460088E40E94460081E60E94460083E67D
:100130000E9446008BE60E944600FFCFF894FFCF56
:00000001FF
